:0400000007EF00F016
:0A0008007D8223ED08F0F3EF0EF007
:10100000003738392F3435362A3132332D23303DED
:101010002B0E0E1F1F1F1F1F000E0A1F1F1F1F1F3B
:10102000000E0A111F1F1F1F000E0A11111F1F1F84
:10103000000E0A1111111F1F000E0A111111111FAC
:0510400000256900001D
:101046000600F2A829EF08F02BEF08F034EF08F0BD
:10105600F2A230EF08F032EF08F034EF08F0FBECC4
:101066000FF0F0A639EF08F03BEF08F044EF08F078
:10107600F0A040EF08F042EF08F044EF08F0F9EC7A
:101086000FF0F0A849EF08F04BEF08F054EF08F026
:10109600F0A250EF08F052EF08F054EF08F0F7EC2A
:1010A6000FF0F2A659EF08F05BEF08F076EF08F0C4
:1010B600F2A060EF08F062EF08F076EF08F081A882
:1010C60067EF08F069EF08F076EF08F07C04D8A423
:1010D6006FEF08F071EF08F076EF08F0000E7C6E07
:1010E600000EC9EC0FF0F2A67BEF08F07DEF08F0DA
:1010F60098EF08F0F2A082EF08F084EF08F098EF7E
:1011060008F081B889EF08F08BEF08F098EF08F047
:101116007C50D8A491EF08F093EF08F098EF08F010
:10112600010E7C6E010EC9EC0FF0F2A69DEF08F0E1
:101136009FEF08F0BAEF08F0F2A0A4EF08F0A6EFD0
:1011460008F0BAEF08F081AAABEF08F0ADEF08F0AF
:10115600BAEF08F07B04D8A4B3EF08F0B5EF08F0B7
:10116600BAEF08F0000E7B6E000EBCEC0FF0F2A694
:10117600BFEF08F0C1EF08F0DCEF08F0F2A0C6EF11
:1011860008F0C8EF08F0DCEF08F081BACDEF08F000
:10119600CFEF08F0DCEF08F07B50D8A4D5EF08F0CD
:1011A600D7EF08F0DCEF08F0010E7B6E010EBCEC09
:1011B6000FF0F2A6E1EF08F0E3EF08F0FEEF08F01B
:1011C600F2A0E8EF08F0EAEF08F0FEEF08F081ACD5
:1011D600EFEF08F0F1EF08F0FEEF08F07A04D8A47C
:1011E600F7EF08F0F9EF08F0FEEF08F0000E7A6E60
:1011F600000EAFEC0FF0F2A603EF09F005EF09F0D1
:1012060020EF09F0F2A00AEF09F00CEF09F020EF49
:1012160009F081BC11EF09F013EF09F020EF09F096
:101226007A50D8A419EF09F01BEF09F020EF09F066
:10123600010E7A6E010EAFEC0FF0F2A625EF09F063
:1012460027EF09F042EF09F0F2A02CEF09F02EEF9C
:1012560009F042EF09F081AE33EF09F035EF09F0FE
:1012660042EF09F07904D8A43BEF09F03DEF09F00D
:1012760042EF09F0000E796E000EA2EC0FF0F2A616
:1012860047EF09F049EF09F064EF09F0F2A04EEFDD
:1012960009F050EF09F064EF09F081BE55EF09F04F
:1012A60057EF09F064EF09F07950D8A45DEF09F023
:1012B6005FEF09F064EF09F0010E796E010EA2EC02
:1012C6000FF09DAC69EF09F06BEF09F074EF09F0D0
:1012D6009EAC70EF09F072EF09F074EF09F001ECC3
:1012E60010F0F2AA79EF09F07BEF09F084EF09F02C
:1012F600F2A480EF09F082EF09F084EF09F0E2EC46
:101306000FF09DA089EF09F08BEF09F094EF09F03B
:101316009EA090EF09F092EF09F094EF09F0DCEC53
:101326000FF09DA299EF09F09BEF09F0A4EF09F0E9
:101336009EA2A0EF09F0A2EF09F0A4EF09F0E8ECF5
:101346000FF0A0A2A9EF09F0ABEF09F0B4EF09F096
:10135600A1A2B0EF09F0B2EF09F0B4EF09F0D6ECB4
:101366000FF09DA8B9EF09F0BBEF09F0C4EF09F043
:101376009EA8C0EF09F0C2EF09F0C4EF09F0F1EC46
:101386000FF09DAAC9EF09F0CBEF09F0D4EF09F0F1
:101396009EAAD0EF09F0D2EF09F0D4EF09F003ECE2
:1013A60010F09DA6D9EF09F0DBEF09F0E4EF09F0A4
:1013B6009EA6E0EF09F0E2EF09F0E4EF09F0F3ECA6
:1013C6000FF0A0A6E9EF09F0EBEF09F0F4EF09F052
:1013D600A1A6F0EF09F0F2EF09F0F4EF09F0F5EC51
:1013E6000FF09DA4F9EF09F0FBEF09F004EF0AF006
:1013F6009EA400EF0AF002EF0AF004EF0AF0FFECF9
:101406000FF0A0A009EF0AF00BEF0AF014EF0AF0B4
:10141600A1A010EF0AF012EF0AF014EF0AF0FDECAB
:101426000FF07D921100ECEC0FF09E0E6C6E000E2C
:101436006D6E010E6E6E140E6F6E390E706E100E9E
:10144600716E000E726E78EC0DF0030E786E080E5B
:10145600776E770EE82EFED7772EFCD7782EFAD742
:1014660000F09E0E6C6E000E6D6E010E6E6E140E0A
:101476006F6E310E706E100E716E000E726E78EC1D
:101486000DF0030E786E080E776E770EE82EFED7F7
:10149600772EFCD7782EFAD700F09E0E6C6E000ED3
:1014A6006D6E010E6E6E140E6F6E290E706E100E3E
:1014B600716E000E726E78EC0DF0030E786E080EEB
:1014C600776E770EE82EFED7772EFCD7782EFAD7D2
:1014D60000F09E0E6C6E000E6D6E010E6E6E140E9A
:1014E6006F6E210E706E100E716E000E726E78ECBD
:1014F6000DF0030E786E080E776E770EE82EFED787
:10150600772EFCD7782EFAD700F09E0E6C6E000E62
:101516006D6E010E6E6E140E6F6E190E706E100EDD
:10152600716E000E726E78EC0DF0030E786E080E7A
:10153600776E770EE82EFED7772EFCD7782EFAD761
:1015460000F09E0E6C6E000E6D6E010E6E6E140E29
:101556006F6E110E706E100E716E000E726E78EC5C
:101566000DF0030E786E080E776E770EE82EFED716
:10157600772EFCD7782EFAD700F018EF0AF007EF8F
:1015860000F0010E516E49504A10D8B4CDEF0AF062
:10159600CFEF0AF0E0EF0AF049C0D9FF4AC0DAFF00
:1015A600DF30E832E832070B4B6E070E4B64DEEF96
:1015B6000AF0E0EF0AF043EF0BF0000E516E64EF15
:1015C6000BF049C0D9FF4AC0DAFFDF30E832E83213
:1015D600070B4B6E010E4C6E4B2AF4EF0AF0D890B7
:1015E6004C364B2EF2EF0AF04C50FF0A4D6E49C0B6
:1015F600D9FF4AC0DAFFDF50070B4E6E4E50020D80
:10160600940EF324D96E000EF420DA6EDECF4FF07E
:10161600DDCF50F04FC0D9FF50C0DAFF4D50DF1676
:1016260064EF0BF049C0D9FF4AC0DAFFDF30E83279
:10163600E832070B4B6E010E4C6E4B2A25EF0BF072
:10164600D8904C364B2E23EF0BF049C0D9FF4AC039
:10165600DAFFDF50070B4D6E4D50020D940EF3244A
:10166600D96E000EF420DA6EDECF4EF0DDCF4FF0ED
:101676004EC0D9FF4FC0DAFF4C50DF1264EF0BF0BB
:1016860049C0D9FF4AC0DAFFDFBC4CEF0BF04FEF81
:101696000BF0010E50EF0BF0000E4B6E4C6A4C50E7
:1016A600000AD8B459EF0BF0E0EF0AF04B50000AED
:1016B600D8B4E4EF0AF0010AD8B415EF0BF0E0EF66
:1016C6000AF051501200010E526E49504A10D8B419
:1016D6006FEF0BF071EF0BF082EF0BF049C0D9FF03
:1016E6004AC0DAFFDF30E832E832070B4C6E070EED
:1016F6004C6480EF0BF082EF0BF0E5EF0BF0000E81
:10170600526EFAEF0BF049C0D9FF4AC0DAFFDF305C
:10171600E832E832070B4C6E010E4D6E4C2A96EFFE
:101726000BF0D8904D364C2E94EF0BF04D50FF0A2F
:101736004E6E49C0D9FF4AC0DAFFDF50070B4F6E25
:101746004F50020D8A0EF324D96E000EF420DA6E85
:10175600DECF50F0DDCF51F050C0D9FF51C0DAFFD7
:101766004E50DF16FAEF0BF049C0D9FF4AC0DAFF38
:10177600DF30E832E832070B4C6E010E4D6E4C2A14
:10178600C7EF0BF0D8904D364C2EC5EF0BF049C085
:10179600D9FF4AC0DAFFDF50070B4E6E4E50020DDE
:1017A6008A0EF324D96E000EF420DA6EDECF4FF0E7
:1017B600DDCF50F04FC0D9FF50C0DAFF4D50DF12D9
:1017C600FAEF0BF04B504C6E4D6A4D50000AD8B4F0
:1017D600EFEF0BF082EF0BF04C50000AD8B486EF17
:1017E6000BF0010AD8B4B7EF0BF082EF0BF05250B2
:1017F6001200000E636E5F506010D8A405EF0CF067
:1018060007EF0CF00BEF0CF0000E646E8EEF0CF091
:101816005FC053F060C054F089EC0EF0646E010EA8
:101826005F24536E000E6020546E89EC0EF0646ED9
:10183600000E636E63505F24616E000E6020626E60
:10184600020E6124536E000E6220546E89EC0EF077
:10185600632A070E636432EF0CF034EF0CF01DEFD1
:101866000CF0340E616EF20EE82EFED7612EFCD718
:101876005FC056F060C057F0380E586E08EC0EF098
:101886000D0E616EFC0EE82EFED7612EFCD75FC0F2
:1018960056F060C057F0380E586E08EC0EF0640E25
:1018A600E82EFED75FC056F060C057F0380E586E6F
:1018B60008EC0EF05FC056F060C057F0010E586E8F
:1018C60008EC0EF05FC056F060C057F0020E586E7E
:1018D60008EC0EF05FC056F060C057F0060E586E6A
:1018E60008EC0EF05FC056F060C057F00C0E586E54
:1018F60008EC0EF05FC056F060C057F0380E586E18
:1019060008EC0EF05FC056F060C057F0800E586EBF
:1019160008EC0EF0646E64501200000E5F6E5B50B1
:101926005C10D8A499EF0CF09BEF0CF09FEF0CF035
:10193600000E606E22EF0DF05BC053F05CC054F0F9
:1019460089EC0EF0606E010E5B24536E000E5C2077
:10195600546E89EC0EF0606E000E5F6E5F505B2475
:101966005D6E000E5C205E6E020E5D24536E000EF0
:101976005E20546E89EC0EF05F2A030E5F64C6EF9C
:101986000CF0C8EF0CF0B1EF0CF0340E5D6EF20EF9
:10199600E82EFED75D2EFCD75BC057F05CC058F032
:1019A600380E596E50EC0EF00D0E5D6EFC0EE82EE4
:1019B600FED75D2EFCD75BC057F05CC058F0380EE2
:1019C600596E50EC0EF0640EE82EFED75BC057F051
:1019D6005CC058F0380E596E50EC0EF05BC057F0F4
:1019E6005CC058F0010E596E50EC0EF05BC057F01B
:1019F6005CC058F0020E596E50EC0EF05BC057F00A
:101A06005CC058F0060E596E50EC0EF05BC057F0F5
:101A16005CC058F00C0E596E50EC0EF05BC057F0DF
:101A26005CC058F0280E596E50EC0EF05BC057F0B3
:101A36005CC058F0800E596E50EC0EF0606E60502F
:101A46001200010E656E620659EF0DF05FC056F08A
:101A560060C057F06250800F586E08EC0EF0656E4D
:101A660076EF0DF05FC056F060C057F06250C00FC1
:101A7600586E08EC0EF0656E76EF0DF05FC056F00E
:101A860060C057F06250940F586E08EC0EF0656E09
:101A960076EF0DF05FC056F060C057F06250D40F7D
:101AA600586E08EC0EF0656E76EF0DF06150636EC1
:101AB600646A6450000AD8B463EF0DF076EF0DF057
:101AC6006350010AD8B429EF0DF0030AD8B435EFF4
:101AD6000DF0010AD8B441EF0DF0070AD8B44DEF66
:101AE6000DF076EF0DF065501200000E766E6C501C
:101AF6006D10D8A481EF0DF083EF0DF087EF0DF098
:101B0600000E756EBEEF0DF06CC056F06DC057F04E
:101B16007250080DF350400F586E08EC0EF0000E90
:101B2600766E6CC056F06DC057F076507024736EAA
:101B3600000E7120746E73C0F6FF74C0F7FFF86A6A
:101B46000800F5CF58F0C0EC0DF0762A070E766443
:101B5600AFEF0DF0B1EF0DF094EF0DF06CC066F045
:101B66006DC067F06EC068F06FC069F072C06AF051
:101B760025EC0FF0756E75501200000E5E6E565015
:101B86005710D8A4C9EF0DF0CBEF0DF0CFEF0DF045
:101B9600000E5D6E06EF0EF056C049F057C04AF0D3
:101BA600010E4B6E66EC0BF0000E5E6E5E50562418
:101BB600596E000E57205A6E020E5924496E000EB9
:101BC6005A204A6E5EC05BF058C05CF05B2AEEEFAE
:101BD6000DF0D8905C325B2EECEF0DF05C50010BF3
:101BE6004B6E66EC0BF05E2A070E5E64FDEF0DF0A1
:101BF600FFEF0DF0D9EF0DF056C053F057C054F07B
:101C060048EC0FF05D6E5D501200000E5E6E565091
:101C16005710D8A411EF0EF013EF0EF017EF0EF0D9
:101C2600000E5D6E4EEF0EF056C049F057C04AF0FA
:101C3600000E4B6E66EC0BF0000E5E6E5E50562488
:101C4600596E000E57205A6E020E5924496E000E28
:101C56005A204A6E5EC05BF058C05CF05B2A36EFD5
:101C66000EF0D8905C325B2E34EF0EF05C50010B18
:101C76004B6E66EC0BF05E2A070E5E6445EF0EF0C7
:101C860047EF0EF021EF0EF056C053F057C054F058
:101C960048EC0FF05D6E5D50120057505810D8A4F6
:101CA60057EF0EF059EF0EF05DEF0EF0000E5A6E84
:101CB60087EF0EF057C049F058C04AF0000E4B6E41
:101CC60066EC0BF05A6E57C053F058C054F05938B2
:101CD6000F0B556EBFEC0EF05A6E57C053F058C03E
:101CE60054F063EC0FF05A6E57C053F058C054F0DE
:101CF60059C055F0BFEC0EF05A6E57C053F058C09D
:101D060054F063EC0FF05A6E5A50120053505410B0
:101D1600D8B490EF0EF092EF0EF0A3EF0EF053C092
:101D2600D9FF54C0DAFFDF30E832E832070B556ED0
:101D3600070E5564A1EF0EF0A3EF0EF0A7EF0EF01D
:101D4600000E566EBDEF0EF053C049F054C04AF077
:101D5600C4EC0AF0566E53C049F054C04AF053C062
:101D6600D9FF54C0DAFF000EDFBE010E4B6E66ECE3
:101D76000BF0566E56501200020E5324496E000E9A
:101D860054204A6E5550010B4B6E66EC0BF0030E59
:101D96005324496E000E54204A6ED8905530010BDC
:101DA6004B6E66EC0BF0040E5324496E000E542065
:101DB6004A6E5540E8423F0B010B4B6E66EC0BF04A
:101DC600050E5324496E000E54204A6E5538E846D7
:101DD6001F0B010B4B6E66EC0BF0566E5650120045
:101DE600FC0EF66E1E0EF76E000EF86E00EE80F01C
:101DF60010EE2EF00900F5CFEEFFE550E150FAE1C6
:101E0600DE0EF66E1F0EF76E000EF86E00EE79F01F
:101E160010EE04F00900F5CFEEFFE550E150FAE1CF
:101E26000001B36BB26BB16BB06BAF6BAE6B00EE18
:101E360001F0470EEE6AE806FDE17D907D92000115
:101E460016EF0AF066506710D8A42CEF0FF02EEFAD
:101E56000FF032EF0FF0000E6B6E46EF0FF066C01C
:101E66005FF067C060F068C061F069C062F024ECA2
:101E76000DF06B6E66C056F067C057F06AC058F03A
:101E8600C0EC0DF06B6E6B501200010E5324496EC0
:101E9600000E54204A6E010E4B6E66EC0BF0030EDC
:101EA600E82EFED700F0010E5324496E000E542092
:101EB6004A6E000E4B6E66EC0BF0556E55501200D6
:101EC600010E5324496E000E54204A6E010E4B6ECD
:101ED60066EC0BF0030EE82EFED700F0010E53243D
:101EE600496E000E54204A6E000E4B6E66EC0BF0E7
:101EF600556E55501200800F810F820F830F840F8D
:101F0600890F8A0F8B0F8C0F8D0F920F930F940FE3
:101F1600950F960F323A030B131B232B333B020A02
:101F2600121A222AA80E5B6E000E5C6E90EC0CF064
:101F36009E0E5F6E000E606EFCEC0BF01200486E9B
:101F4600F2904850D8A4AAEF0FF0ACEF0FF0AEEF26
:101F56000FF0AEEF0FF01200486EF2904850D8A482
:101F6600B7EF0FF0B9EF0FF0BBEF0FF0BBEF0FF0CD
:101F76001200486EF2904850D8A4C4EF0FF0C6EF96
:101F86000FF0C8EF0FF0C8EF0FF01200486EF29096
:101F96004850D8A4D1EF0FF0D3EF0FF0D5EF0FF0E4
:101FA600D5EF0FF01200A1921050B36E0FC0B2FF22
:101FB60012009E901650CF6E15C0CEFF1200F294FE
:101FC6001A50D76E19C0D6FF12009E9240C0CCFFA1
:101FD600120095EC0FF01200010101019D9812000C
:101FE6009E961200A1961200F0921200F090120036
:101FF600F2921200A19012009E9412009E9C120072
:022006001200C6
:020000040020DA
:08000000FFFFFFFFFFFFFFFF00
:020000040030CA
:0E000000FF020912FF8181FF0FC00FE00F40C9
:00000001FF
